:100000000C9434000C943E000C943E000C943E0082
:100010000C943E000C943E000C943E000C943E0068
:100020000C943E000C943E000C943E000C943E0058
:100030000C943E000C943E000C943E000C943E0048
:100040000C943E000C943E000C943E000C943E0038
:100050000C943E000C943E000C943E000C943E0028
:100060000C943E000C943E0011241FBECFEFD8E04C
:10007000DEBFCDBF0E94B0000C9431010C94000093
:10008000CF93DF9300D000D000D0CDB7DEB79E83F2
:100090008D838D819E8182959295907F9827807F18
:1000A00098279C01990F440B550B80E094E2A4EF34
:1000B000B0E0BC01CD010E940F01DA01C901019736
:1000C000A109B10989839A83AB83BC8389819A8111
:1000D000AB81BC81892F9A2FAB2FBB2725EC30E059
:1000E000F901808384EC90E02981FC01208382EC7B
:1000F00090E0FC01208182EC90E02660FC012083EE
:1001000081EC90E0FC01208181EC90E02861FC0111
:10011000208380E090E026960FB6F894DEBF0FBEF5
:10012000CDBFDF91CF910895CF93DF931F92CDB7CD
:10013000DEB78983000080EC90E0FC018081882F8D
:1001400090E080729927892BB1F386EC90E02981A9
:10015000FC01208380E090E00F90DF91CF91089523
:10016000CF93DF93CDB7DEB728970FB6F894DEBFF5
:100170000FBECDBF84E290E0FC01208184E290E0DC
:100180002062FC01208380E895E20E9440001982F1
:100190001A821B821C820BC089819A81AB81BC812F
:1001A0000196A11DB11D89839A83AB83BC8389818C
:1001B0009A81AB81BC818135934CA105B10564F373
:1001C00085E290E0FC01208185E290E02062FC0164
:1001D000208381E40E9494001D821E821F82188663
:1001E0000BC08D819E81AF81B8850196A11DB11D87
:1001F0008D839E83AF83B8878D819E81AF81B885C3
:100200008135934CA105B10564F385E290E0FC01D2
:10021000208185E290E02F7DFC012083B8CFA1E210
:100220001A2EAA1BBB1BFD010DC0AA1FBB1FEE1F70
:10023000FF1FA217B307E407F50720F0A21BB30BBB
:10024000E40BF50B661F771F881F991F1A9469F737
:1002500060957095809590959B01AC01BD01CF0193
:060260000895F894FFCFA1
:00000001FF
